{
  "contractName": "Token",
  "abi": [
    {
      "inputs": [],
      "stateMutability": "nonpayable",
      "type": "constructor"
    },
    {
      "anonymous": false,
      "inputs": [
        {
          "indexed": true,
          "internalType": "address",
          "name": "owner",
          "type": "address"
        },
        {
          "indexed": true,
          "internalType": "address",
          "name": "spender",
          "type": "address"
        },
        {
          "indexed": false,
          "internalType": "uint256",
          "name": "value",
          "type": "uint256"
        }
      ],
      "name": "Approval",
      "type": "event"
    },
    {
      "anonymous": false,
      "inputs": [
        {
          "indexed": false,
          "internalType": "address",
          "name": "account",
          "type": "address"
        }
      ],
      "name": "Paused",
      "type": "event"
    },
    {
      "anonymous": false,
      "inputs": [
        {
          "indexed": true,
          "internalType": "bytes32",
          "name": "role",
          "type": "bytes32"
        },
        {
          "indexed": true,
          "internalType": "bytes32",
          "name": "previousAdminRole",
          "type": "bytes32"
        },
        {
          "indexed": true,
          "internalType": "bytes32",
          "name": "newAdminRole",
          "type": "bytes32"
        }
      ],
      "name": "RoleAdminChanged",
      "type": "event"
    },
    {
      "anonymous": false,
      "inputs": [
        {
          "indexed": true,
          "internalType": "bytes32",
          "name": "role",
          "type": "bytes32"
        },
        {
          "indexed": true,
          "internalType": "address",
          "name": "account",
          "type": "address"
        },
        {
          "indexed": true,
          "internalType": "address",
          "name": "sender",
          "type": "address"
        }
      ],
      "name": "RoleGranted",
      "type": "event"
    },
    {
      "anonymous": false,
      "inputs": [
        {
          "indexed": true,
          "internalType": "bytes32",
          "name": "role",
          "type": "bytes32"
        },
        {
          "indexed": true,
          "internalType": "address",
          "name": "account",
          "type": "address"
        },
        {
          "indexed": true,
          "internalType": "address",
          "name": "sender",
          "type": "address"
        }
      ],
      "name": "RoleRevoked",
      "type": "event"
    },
    {
      "anonymous": false,
      "inputs": [
        {
          "indexed": true,
          "internalType": "address",
          "name": "from",
          "type": "address"
        },
        {
          "indexed": true,
          "internalType": "address",
          "name": "to",
          "type": "address"
        },
        {
          "indexed": false,
          "internalType": "uint256",
          "name": "value",
          "type": "uint256"
        }
      ],
      "name": "Transfer",
      "type": "event"
    },
    {
      "anonymous": false,
      "inputs": [
        {
          "indexed": false,
          "internalType": "address",
          "name": "account",
          "type": "address"
        }
      ],
      "name": "Unpaused",
      "type": "event"
    },
    {
      "inputs": [],
      "name": "BURNER_ADMIN_ROLE",
      "outputs": [
        {
          "internalType": "bytes32",
          "name": "",
          "type": "bytes32"
        }
      ],
      "stateMutability": "view",
      "type": "function",
      "constant": true
    },
    {
      "inputs": [],
      "name": "BURNER_ROLE",
      "outputs": [
        {
          "internalType": "bytes32",
          "name": "",
          "type": "bytes32"
        }
      ],
      "stateMutability": "view",
      "type": "function",
      "constant": true
    },
    {
      "inputs": [],
      "name": "DEFAULT_ADMIN_ROLE",
      "outputs": [
        {
          "internalType": "bytes32",
          "name": "",
          "type": "bytes32"
        }
      ],
      "stateMutability": "view",
      "type": "function",
      "constant": true
    },
    {
      "inputs": [],
      "name": "MINTER_ADMIN_ROLE",
      "outputs": [
        {
          "internalType": "bytes32",
          "name": "",
          "type": "bytes32"
        }
      ],
      "stateMutability": "view",
      "type": "function",
      "constant": true
    },
    {
      "inputs": [],
      "name": "MINTER_ROLE",
      "outputs": [
        {
          "internalType": "bytes32",
          "name": "",
          "type": "bytes32"
        }
      ],
      "stateMutability": "view",
      "type": "function",
      "constant": true
    },
    {
      "inputs": [],
      "name": "PAUSER_ADMIN_ROLE",
      "outputs": [
        {
          "internalType": "bytes32",
          "name": "",
          "type": "bytes32"
        }
      ],
      "stateMutability": "view",
      "type": "function",
      "constant": true
    },
    {
      "inputs": [],
      "name": "PAUSER_ROLE",
      "outputs": [
        {
          "internalType": "bytes32",
          "name": "",
          "type": "bytes32"
        }
      ],
      "stateMutability": "view",
      "type": "function",
      "constant": true
    },
    {
      "inputs": [
        {
          "internalType": "address",
          "name": "owner",
          "type": "address"
        },
        {
          "internalType": "address",
          "name": "spender",
          "type": "address"
        }
      ],
      "name": "allowance",
      "outputs": [
        {
          "internalType": "uint256",
          "name": "",
          "type": "uint256"
        }
      ],
      "stateMutability": "view",
      "type": "function",
      "constant": true
    },
    {
      "inputs": [
        {
          "internalType": "address",
          "name": "spender",
          "type": "address"
        },
        {
          "internalType": "uint256",
          "name": "amount",
          "type": "uint256"
        }
      ],
      "name": "approve",
      "outputs": [
        {
          "internalType": "bool",
          "name": "",
          "type": "bool"
        }
      ],
      "stateMutability": "nonpayable",
      "type": "function"
    },
    {
      "inputs": [
        {
          "internalType": "address",
          "name": "account",
          "type": "address"
        }
      ],
      "name": "balanceOf",
      "outputs": [
        {
          "internalType": "uint256",
          "name": "",
          "type": "uint256"
        }
      ],
      "stateMutability": "view",
      "type": "function",
      "constant": true
    },
    {
      "inputs": [
        {
          "internalType": "uint256",
          "name": "amount",
          "type": "uint256"
        }
      ],
      "name": "burn",
      "outputs": [],
      "stateMutability": "nonpayable",
      "type": "function"
    },
    {
      "inputs": [
        {
          "internalType": "address",
          "name": "account",
          "type": "address"
        },
        {
          "internalType": "uint256",
          "name": "amount",
          "type": "uint256"
        }
      ],
      "name": "burnFrom",
      "outputs": [],
      "stateMutability": "nonpayable",
      "type": "function"
    },
    {
      "inputs": [],
      "name": "decimals",
      "outputs": [
        {
          "internalType": "uint8",
          "name": "",
          "type": "uint8"
        }
      ],
      "stateMutability": "view",
      "type": "function",
      "constant": true
    },
    {
      "inputs": [
        {
          "internalType": "address",
          "name": "spender",
          "type": "address"
        },
        {
          "internalType": "uint256",
          "name": "subtractedValue",
          "type": "uint256"
        }
      ],
      "name": "decreaseAllowance",
      "outputs": [
        {
          "internalType": "bool",
          "name": "",
          "type": "bool"
        }
      ],
      "stateMutability": "nonpayable",
      "type": "function"
    },
    {
      "inputs": [
        {
          "internalType": "bytes32",
          "name": "role",
          "type": "bytes32"
        }
      ],
      "name": "getRoleAdmin",
      "outputs": [
        {
          "internalType": "bytes32",
          "name": "",
          "type": "bytes32"
        }
      ],
      "stateMutability": "view",
      "type": "function",
      "constant": true
    },
    {
      "inputs": [
        {
          "internalType": "bytes32",
          "name": "role",
          "type": "bytes32"
        },
        {
          "internalType": "uint256",
          "name": "index",
          "type": "uint256"
        }
      ],
      "name": "getRoleMember",
      "outputs": [
        {
          "internalType": "address",
          "name": "",
          "type": "address"
        }
      ],
      "stateMutability": "view",
      "type": "function",
      "constant": true
    },
    {
      "inputs": [
        {
          "internalType": "bytes32",
          "name": "role",
          "type": "bytes32"
        }
      ],
      "name": "getRoleMemberCount",
      "outputs": [
        {
          "internalType": "uint256",
          "name": "",
          "type": "uint256"
        }
      ],
      "stateMutability": "view",
      "type": "function",
      "constant": true
    },
    {
      "inputs": [
        {
          "internalType": "bytes32",
          "name": "role",
          "type": "bytes32"
        },
        {
          "internalType": "address",
          "name": "account",
          "type": "address"
        }
      ],
      "name": "grantRole",
      "outputs": [],
      "stateMutability": "nonpayable",
      "type": "function"
    },
    {
      "inputs": [
        {
          "internalType": "bytes32",
          "name": "role",
          "type": "bytes32"
        },
        {
          "internalType": "address",
          "name": "account",
          "type": "address"
        }
      ],
      "name": "hasRole",
      "outputs": [
        {
          "internalType": "bool",
          "name": "",
          "type": "bool"
        }
      ],
      "stateMutability": "view",
      "type": "function",
      "constant": true
    },
    {
      "inputs": [
        {
          "internalType": "address",
          "name": "spender",
          "type": "address"
        },
        {
          "internalType": "uint256",
          "name": "addedValue",
          "type": "uint256"
        }
      ],
      "name": "increaseAllowance",
      "outputs": [
        {
          "internalType": "bool",
          "name": "",
          "type": "bool"
        }
      ],
      "stateMutability": "nonpayable",
      "type": "function"
    },
    {
      "inputs": [],
      "name": "name",
      "outputs": [
        {
          "internalType": "string",
          "name": "",
          "type": "string"
        }
      ],
      "stateMutability": "view",
      "type": "function",
      "constant": true
    },
    {
      "inputs": [],
      "name": "paused",
      "outputs": [
        {
          "internalType": "bool",
          "name": "",
          "type": "bool"
        }
      ],
      "stateMutability": "view",
      "type": "function",
      "constant": true
    },
    {
      "inputs": [
        {
          "internalType": "bytes32",
          "name": "role",
          "type": "bytes32"
        },
        {
          "internalType": "address",
          "name": "account",
          "type": "address"
        }
      ],
      "name": "renounceRole",
      "outputs": [],
      "stateMutability": "nonpayable",
      "type": "function"
    },
    {
      "inputs": [
        {
          "internalType": "bytes32",
          "name": "role",
          "type": "bytes32"
        },
        {
          "internalType": "address",
          "name": "account",
          "type": "address"
        }
      ],
      "name": "revokeRole",
      "outputs": [],
      "stateMutability": "nonpayable",
      "type": "function"
    },
    {
      "inputs": [],
      "name": "symbol",
      "outputs": [
        {
          "internalType": "string",
          "name": "",
          "type": "string"
        }
      ],
      "stateMutability": "view",
      "type": "function",
      "constant": true
    },
    {
      "inputs": [],
      "name": "totalSupply",
      "outputs": [
        {
          "internalType": "uint256",
          "name": "",
          "type": "uint256"
        }
      ],
      "stateMutability": "view",
      "type": "function",
      "constant": true
    },
    {
      "inputs": [
        {
          "internalType": "address",
          "name": "recipient",
          "type": "address"
        },
        {
          "internalType": "uint256",
          "name": "amount",
          "type": "uint256"
        }
      ],
      "name": "transfer",
      "outputs": [
        {
          "internalType": "bool",
          "name": "",
          "type": "bool"
        }
      ],
      "stateMutability": "nonpayable",
      "type": "function"
    },
    {
      "inputs": [
        {
          "internalType": "address",
          "name": "sender",
          "type": "address"
        },
        {
          "internalType": "address",
          "name": "recipient",
          "type": "address"
        },
        {
          "internalType": "uint256",
          "name": "amount",
          "type": "uint256"
        }
      ],
      "name": "transferFrom",
      "outputs": [
        {
          "internalType": "bool",
          "name": "",
          "type": "bool"
        }
      ],
      "stateMutability": "nonpayable",
      "type": "function"
    },
    {
      "stateMutability": "payable",
      "type": "receive",
      "payable": true
    },
    {
      "inputs": [
        {
          "internalType": "address",
          "name": "to",
          "type": "address"
        },
        {
          "internalType": "uint256",
          "name": "amount",
          "type": "uint256"
        }
      ],
      "name": "mint",
      "outputs": [],
      "stateMutability": "nonpayable",
      "type": "function"
    },
    {
      "inputs": [],
      "name": "pause",
      "outputs": [],
      "stateMutability": "nonpayable",
      "type": "function"
    },
    {
      "inputs": [],
      "name": "unpause",
      "outputs": [],
      "stateMutability": "nonpayable",
      "type": "function"
    }
  ],
  "bytecode": "0x60806040523480156200001157600080fd5b506040518060400160405280600681526020017f4b69726f626f00000000000000000000000000000000000000000000000000008152506040518060400160405280600481526020017f4b49524f00000000000000000000000000000000000000000000000000000000815250816004908051906020019062000096929190620005ab565b508060059080519060200190620000af929190620005ab565b506012600660006101000a81548160ff021916908360ff16021790555050506000600660016101000a81548160ff0219169083151502179055506200010d6000801b62000101620003b360201b60201c565b620003bb60201b60201c565b620001517f9f2df0fed2c77648de5860a4cc508cd0818c85b8b8a1ab4ceeef8d981c8956a660001b62000145620003b360201b60201c565b620003bb60201b60201c565b620001957f65d7a28e3265b37a6474929f336521b332c1681b933f6cb9f3376673440d862a60001b62000189620003b360201b60201c565b620003bb60201b60201c565b620001d97f3c11d16cbaffd01df69ce1c404f6340ee057498f5f00246190ea54220576a84860001b620001cd620003b360201b60201c565b620003bb60201b60201c565b6200021d7f70480ee89cb38eff00b7d23da25713d52ce19c6ed428691d22c58b2f615e3d6760001b62000211620003b360201b60201c565b620003bb60201b60201c565b620002617fe0e65c783ac33ff1c5ccf4399c9185066773921d6f8d050bf80781603021f09760001b62000255620003b360201b60201c565b620003bb60201b60201c565b620002a57fc8d1ad9d415224b751d781cc8214ccfe7c47716e13229475443f04f1ebddadc660001b62000299620003b360201b60201c565b620003bb60201b60201c565b620002fd7f9f2df0fed2c77648de5860a4cc508cd0818c85b8b8a1ab4ceeef8d981c8956a660001b7f70480ee89cb38eff00b7d23da25713d52ce19c6ed428691d22c58b2f615e3d6760001b620003d160201b60201c565b620003557f65d7a28e3265b37a6474929f336521b332c1681b933f6cb9f3376673440d862a60001b7fe0e65c783ac33ff1c5ccf4399c9185066773921d6f8d050bf80781603021f09760001b620003d160201b60201c565b620003ad7f3c11d16cbaffd01df69ce1c404f6340ee057498f5f00246190ea54220576a84860001b7fc8d1ad9d415224b751d781cc8214ccfe7c47716e13229475443f04f1ebddadc660001b620003d160201b60201c565b62000651565b600033905090565b620003cd82826200043360201b60201c565b5050565b8060008084815260200190815260200160002060020154837fbd79b86ffe0ab8e8776151514217cd7cacd52c909f66475c3af44e129f0b00ff60405160405180910390a480600080848152602001908152602001600020600201819055505050565b6200046181600080858152602001908152602001600020600001620004d660201b620016731790919060201c565b15620004d25762000477620003b360201b60201c565b73ffffffffffffffffffffffffffffffffffffffff168173ffffffffffffffffffffffffffffffffffffffff16837f2f8788117e7eff1d82e926ec794901d17c78024a50270940304540a733656f0d60405160405180910390a45b5050565b600062000506836000018373ffffffffffffffffffffffffffffffffffffffff1660001b6200050e60201b60201c565b905092915050565b60006200052283836200058860201b60201c565b6200057d57826000018290806001815401808255809150506001900390600052602060002001600090919091909150558260000180549050836001016000848152602001908152602001600020819055506001905062000582565b600090505b92915050565b600080836001016000848152602001908152602001600020541415905092915050565b828054600181600116156101000203166002900490600052602060002090601f016020900481019282601f10620005ee57805160ff19168380011785556200061f565b828001600101855582156200061f579182015b828111156200061e57825182559160200191906001019062000601565b5b5090506200062e919062000632565b5090565b5b808211156200064d57600081600090555060010162000633565b5090565b612a8180620006616000396000f3fe6080604052600436106101dc5760003560e01c80635c975abb11610102578063a457c2d711610095578063d539139311610064578063d539139314610ae6578063d547741f14610b11578063dd62ed3e14610b6c578063e63ab1e914610bf157610257565b8063a457c2d71461098a578063a9059cbb146109fb578063b0805aa714610a6c578063ca15c87314610a9757610257565b80639010d07c116100d15780639010d07c146107ef57806391d148541461085e57806395d89b41146108cf578063a217fddf1461095f57610257565b80635c975abb146106eb57806370a082311461071857806379cc67901461077d5780638456cb59146107d857610257565b8063282c51f31161017a578063395093511161014957806339509351146105cd5780633f4ba83a1461063e57806340c10f191461065557806342966c68146106b057610257565b8063282c51f3146104be5780632f2ff15d146104e9578063313ce5671461054457806336568abe1461057257610257565b806318160ddd116101b657806318160ddd1461038857806323b872dd146103b3578063248a9ca31461044457806325a004731461049357610257565b806306fdde031461025c578063095ea7b3146102ec5780631339324b1461035d57610257565b36610257576000610255576040517f08c379a000000000000000000000000000000000000000000000000000000000815260040180806020018281038252601a8152602001807f546f6b656e3a206e6f7420616365657074696e6720657468657200000000000081525060200191505060405180910390fd5b005b600080fd5b34801561026857600080fd5b50610271610c1c565b6040518080602001828103825283818151815260200191508051906020019080838360005b838110156102b1578082015181840152602081019050610296565b50505050905090810190601f1680156102de5780820380516001836020036101000a031916815260200191505b509250505060405180910390f35b3480156102f857600080fd5b506103456004803603604081101561030f57600080fd5b81019080803573ffffffffffffffffffffffffffffffffffffffff16906020019092919080359060200190929190505050610cbe565b60405180821515815260200191505060405180910390f35b34801561036957600080fd5b50610372610cdc565b6040518082815260200191505060405180910390f35b34801561039457600080fd5b5061039d610d03565b6040518082815260200191505060405180910390f35b3480156103bf57600080fd5b5061042c600480360360608110156103d657600080fd5b81019080803573ffffffffffffffffffffffffffffffffffffffff169060200190929190803573ffffffffffffffffffffffffffffffffffffffff16906020019092919080359060200190929190505050610d0d565b60405180821515815260200191505060405180910390f35b34801561045057600080fd5b5061047d6004803603602081101561046757600080fd5b8101908080359060200190929190505050610de6565b6040518082815260200191505060405180910390f35b34801561049f57600080fd5b506104a8610e05565b6040518082815260200191505060405180910390f35b3480156104ca57600080fd5b506104d3610e2c565b6040518082815260200191505060405180910390f35b3480156104f557600080fd5b506105426004803603604081101561050c57600080fd5b8101908080359060200190929190803573ffffffffffffffffffffffffffffffffffffffff169060200190929190505050610e53565b005b34801561055057600080fd5b50610559610edc565b604051808260ff16815260200191505060405180910390f35b34801561057e57600080fd5b506105cb6004803603604081101561059557600080fd5b8101908080359060200190929190803573ffffffffffffffffffffffffffffffffffffffff169060200190929190505050610ef3565b005b3480156105d957600080fd5b50610626600480360360408110156105f057600080fd5b81019080803573ffffffffffffffffffffffffffffffffffffffff16906020019092919080359060200190929190505050610f8c565b60405180821515815260200191505060405180910390f35b34801561064a57600080fd5b5061065361103f565b005b34801561066157600080fd5b506106ae6004803603604081101561067857600080fd5b81019080803573ffffffffffffffffffffffffffffffffffffffff169060200190929190803590602001909291905050506110d2565b005b3480156106bc57600080fd5b506106e9600480360360208110156106d357600080fd5b8101908080359060200190929190505050611169565b005b3480156106f757600080fd5b5061070061117d565b60405180821515815260200191505060405180910390f35b34801561072457600080fd5b506107676004803603602081101561073b57600080fd5b81019080803573ffffffffffffffffffffffffffffffffffffffff169060200190929190505050611194565b6040518082815260200191505060405180910390f35b34801561078957600080fd5b506107d6600480360360408110156107a057600080fd5b81019080803573ffffffffffffffffffffffffffffffffffffffff169060200190929190803590602001909291905050506111dd565b005b3480156107e457600080fd5b506107ed61123f565b005b3480156107fb57600080fd5b506108326004803603604081101561081257600080fd5b8101908080359060200190929190803590602001909291905050506112d2565b604051808273ffffffffffffffffffffffffffffffffffffffff16815260200191505060405180910390f35b34801561086a57600080fd5b506108b76004803603604081101561088157600080fd5b8101908080359060200190929190803573ffffffffffffffffffffffffffffffffffffffff169060200190929190505050611303565b60405180821515815260200191505060405180910390f35b3480156108db57600080fd5b506108e4611334565b6040518080602001828103825283818151815260200191508051906020019080838360005b83811015610924578082015181840152602081019050610909565b50505050905090810190601f1680156109515780820380516001836020036101000a031916815260200191505b509250505060405180910390f35b34801561096b57600080fd5b506109746113d6565b6040518082815260200191505060405180910390f35b34801561099657600080fd5b506109e3600480360360408110156109ad57600080fd5b81019080803573ffffffffffffffffffffffffffffffffffffffff169060200190929190803590602001909291905050506113dd565b60405180821515815260200191505060405180910390f35b348015610a0757600080fd5b50610a5460048036036040811015610a1e57600080fd5b81019080803573ffffffffffffffffffffffffffffffffffffffff169060200190929190803590602001909291905050506114aa565b60405180821515815260200191505060405180910390f35b348015610a7857600080fd5b50610a816114c8565b6040518082815260200191505060405180910390f35b348015610aa357600080fd5b50610ad060048036036020811015610aba57600080fd5b81019080803590602001909291905050506114ef565b6040518082815260200191505060405180910390f35b348015610af257600080fd5b50610afb611515565b6040518082815260200191505060405180910390f35b348015610b1d57600080fd5b50610b6a60048036036040811015610b3457600080fd5b8101908080359060200190929190803573ffffffffffffffffffffffffffffffffffffffff16906020019092919050505061153c565b005b348015610b7857600080fd5b50610bdb60048036036040811015610b8f57600080fd5b81019080803573ffffffffffffffffffffffffffffffffffffffff169060200190929190803573ffffffffffffffffffffffffffffffffffffffff1690602001909291905050506115c5565b6040518082815260200191505060405180910390f35b348015610bfd57600080fd5b50610c0661164c565b6040518082815260200191505060405180910390f35b606060048054600181600116156101000203166002900480601f016020809104026020016040519081016040528092919081815260200182805460018160011615610100020316600290048015610cb45780601f10610c8957610100808354040283529160200191610cb4565b820191906000526020600020905b815481529060010190602001808311610c9757829003601f168201915b5050505050905090565b6000610cd2610ccb6116a3565b84846116ab565b6001905092915050565b7f70480ee89cb38eff00b7d23da25713d52ce19c6ed428691d22c58b2f615e3d6760001b81565b6000600354905090565b6000610d1a8484846118a2565b610ddb84610d266116a3565b610dd6856040518060600160405280602881526020016128f460289139600260008b73ffffffffffffffffffffffffffffffffffffffff1673ffffffffffffffffffffffffffffffffffffffff1681526020019081526020016000206000610d8c6116a3565b73ffffffffffffffffffffffffffffffffffffffff1673ffffffffffffffffffffffffffffffffffffffff16815260200190815260200160002054611b679092919063ffffffff16565b6116ab565b600190509392505050565b6000806000838152602001908152602001600020600201549050919050565b7fe0e65c783ac33ff1c5ccf4399c9185066773921d6f8d050bf80781603021f09760001b81565b7f3c11d16cbaffd01df69ce1c404f6340ee057498f5f00246190ea54220576a84860001b81565b610e7960008084815260200190815260200160002060020154610e746116a3565b611303565b610ece576040517f08c379a000000000000000000000000000000000000000000000000000000000815260040180806020018281038252602f8152602001806127bb602f913960400191505060405180910390fd5b610ed88282611c27565b5050565b6000600660009054906101000a900460ff16905090565b610efb6116a3565b73ffffffffffffffffffffffffffffffffffffffff168173ffffffffffffffffffffffffffffffffffffffff1614610f7e576040517f08c379a000000000000000000000000000000000000000000000000000000000815260040180806020018281038252602f8152602001806129f3602f913960400191505060405180910390fd5b610f888282611cba565b5050565b6000611035610f996116a3565b846110308560026000610faa6116a3565b73ffffffffffffffffffffffffffffffffffffffff1673ffffffffffffffffffffffffffffffffffffffff16815260200190815260200160002060008973ffffffffffffffffffffffffffffffffffffffff1673ffffffffffffffffffffffffffffffffffffffff16815260200190815260200160002054611d4d90919063ffffffff16565b6116ab565b6001905092915050565b6110737f65d7a28e3265b37a6474929f336521b332c1681b933f6cb9f3376673440d862a60001b61106e6116a3565b611303565b6110c8576040517f08c379a00000000000000000000000000000000000000000000000000000000081526004018080602001828103825260278152602001806127ea6027913960400191505060405180910390fd5b6110d0611dd5565b565b6111067f9f2df0fed2c77648de5860a4cc508cd0818c85b8b8a1ab4ceeef8d981c8956a660001b6111016116a3565b611303565b61115b576040517f08c379a00000000000000000000000000000000000000000000000000000000081526004018080602001828103825260248152602001806129aa6024913960400191505060405180910390fd5b6111658282611ec8565b5050565b61117a6111746116a3565b82612091565b50565b6000600660019054906101000a900460ff16905090565b6000600160008373ffffffffffffffffffffffffffffffffffffffff1673ffffffffffffffffffffffffffffffffffffffff168152602001908152602001600020549050919050565b600061121c8260405180606001604052806024815260200161291c6024913961120d866112086116a3565b6115c5565b611b679092919063ffffffff16565b90506112308361122a6116a3565b836116ab565b61123a8383612091565b505050565b6112737f65d7a28e3265b37a6474929f336521b332c1681b933f6cb9f3376673440d862a60001b61126e6116a3565b611303565b6112c8576040517f08c379a00000000000000000000000000000000000000000000000000000000081526004018080602001828103825260258152602001806128cf6025913960400191505060405180910390fd5b6112d0612257565b565b60006112fb8260008086815260200190815260200160002060000161234b90919063ffffffff16565b905092915050565b600061132c8260008086815260200190815260200160002060000161236590919063ffffffff16565b905092915050565b606060058054600181600116156101000203166002900480601f0160208091040260200160405190810160405280929190818152602001828054600181600116156101000203166002900480156113cc5780601f106113a1576101008083540402835291602001916113cc565b820191906000526020600020905b8154815290600101906020018083116113af57829003601f168201915b5050505050905090565b6000801b81565b60006114a06113ea6116a3565b8461149b856040518060600160405280602581526020016129ce60259139600260006114146116a3565b73ffffffffffffffffffffffffffffffffffffffff1673ffffffffffffffffffffffffffffffffffffffff16815260200190815260200160002060008a73ffffffffffffffffffffffffffffffffffffffff1673ffffffffffffffffffffffffffffffffffffffff16815260200190815260200160002054611b679092919063ffffffff16565b6116ab565b6001905092915050565b60006114be6114b76116a3565b84846118a2565b6001905092915050565b7fc8d1ad9d415224b751d781cc8214ccfe7c47716e13229475443f04f1ebddadc660001b81565b600061150e600080848152602001908152602001600020600001612395565b9050919050565b7f9f2df0fed2c77648de5860a4cc508cd0818c85b8b8a1ab4ceeef8d981c8956a660001b81565b6115626000808481526020019081526020016000206002015461155d6116a3565b611303565b6115b7576040517f08c379a000000000000000000000000000000000000000000000000000000000815260040180806020018281038252603081526020018061289f6030913960400191505060405180910390fd5b6115c18282611cba565b5050565b6000600260008473ffffffffffffffffffffffffffffffffffffffff1673ffffffffffffffffffffffffffffffffffffffff16815260200190815260200160002060008373ffffffffffffffffffffffffffffffffffffffff1673ffffffffffffffffffffffffffffffffffffffff16815260200190815260200160002054905092915050565b7f65d7a28e3265b37a6474929f336521b332c1681b933f6cb9f3376673440d862a60001b81565b600061169b836000018373ffffffffffffffffffffffffffffffffffffffff1660001b6123aa565b905092915050565b600033905090565b600073ffffffffffffffffffffffffffffffffffffffff168373ffffffffffffffffffffffffffffffffffffffff161415611731576040517f08c379a00000000000000000000000000000000000000000000000000000000081526004018080602001828103825260248152602001806129866024913960400191505060405180910390fd5b600073ffffffffffffffffffffffffffffffffffffffff168273ffffffffffffffffffffffffffffffffffffffff1614156117b7576040517f08c379a00000000000000000000000000000000000000000000000000000000081526004018080602001828103825260228152602001806128336022913960400191505060405180910390fd5b80600260008573ffffffffffffffffffffffffffffffffffffffff1673ffffffffffffffffffffffffffffffffffffffff16815260200190815260200160002060008473ffffffffffffffffffffffffffffffffffffffff1673ffffffffffffffffffffffffffffffffffffffff168152602001908152602001600020819055508173ffffffffffffffffffffffffffffffffffffffff168373ffffffffffffffffffffffffffffffffffffffff167f8c5be1e5ebec7d5bd14f71427d1e84f3dd0314c0f7b2291e5b200ac8c7c3b925836040518082815260200191505060405180910390a3505050565b600073ffffffffffffffffffffffffffffffffffffffff168373ffffffffffffffffffffffffffffffffffffffff161415611928576040517f08c379a00000000000000000000000000000000000000000000000000000000081526004018080602001828103825260258152602001806129616025913960400191505060405180910390fd5b600073ffffffffffffffffffffffffffffffffffffffff168273ffffffffffffffffffffffffffffffffffffffff1614156119ae576040517f08c379a00000000000000000000000000000000000000000000000000000000081526004018080602001828103825260238152602001806127986023913960400191505060405180910390fd5b6119b983838361241a565b611a258160405180606001604052806026815260200161285560269139600160008773ffffffffffffffffffffffffffffffffffffffff1673ffffffffffffffffffffffffffffffffffffffff16815260200190815260200160002054611b679092919063ffffffff16565b600160008573ffffffffffffffffffffffffffffffffffffffff1673ffffffffffffffffffffffffffffffffffffffff16815260200190815260200160002081905550611aba81600160008573ffffffffffffffffffffffffffffffffffffffff1673ffffffffffffffffffffffffffffffffffffffff16815260200190815260200160002054611d4d90919063ffffffff16565b600160008473ffffffffffffffffffffffffffffffffffffffff1673ffffffffffffffffffffffffffffffffffffffff168152602001908152602001600020819055508173ffffffffffffffffffffffffffffffffffffffff168373ffffffffffffffffffffffffffffffffffffffff167fddf252ad1be2c89b69c2b068fc378daa952ba7f163c4a11628f55a4df523b3ef836040518082815260200191505060405180910390a3505050565b6000838311158290611c14576040517f08c379a00000000000000000000000000000000000000000000000000000000081526004018080602001828103825283818151815260200191508051906020019080838360005b83811015611bd9578082015181840152602081019050611bbe565b50505050905090810190601f168015611c065780820380516001836020036101000a031916815260200191505b509250505060405180910390fd5b5060008385039050809150509392505050565b611c4e8160008085815260200190815260200160002060000161167390919063ffffffff16565b15611cb657611c5b6116a3565b73ffffffffffffffffffffffffffffffffffffffff168173ffffffffffffffffffffffffffffffffffffffff16837f2f8788117e7eff1d82e926ec794901d17c78024a50270940304540a733656f0d60405160405180910390a45b5050565b611ce1816000808581526020019081526020016000206000016124e990919063ffffffff16565b15611d4957611cee6116a3565b73ffffffffffffffffffffffffffffffffffffffff168173ffffffffffffffffffffffffffffffffffffffff16837ff6391f5c32d9c69d2a47ea670b442974b53935d1edc7fd64eb21e047a839171b60405160405180910390a45b5050565b600080828401905083811015611dcb576040517f08c379a000000000000000000000000000000000000000000000000000000000815260040180806020018281038252601b8152602001807f536166654d6174683a206164646974696f6e206f766572666c6f77000000000081525060200191505060405180910390fd5b8091505092915050565b600660019054906101000a900460ff16611e57576040517f08c379a00000000000000000000000000000000000000000000000000000000081526004018080602001828103825260148152602001807f5061757361626c653a206e6f742070617573656400000000000000000000000081525060200191505060405180910390fd5b6000600660016101000a81548160ff0219169083151502179055507f5db9ee0a495bf2e6ff9c91a7834c1ba4fdd244a5e8aa4e537bd38aeae4b073aa611e9b6116a3565b604051808273ffffffffffffffffffffffffffffffffffffffff16815260200191505060405180910390a1565b600073ffffffffffffffffffffffffffffffffffffffff168273ffffffffffffffffffffffffffffffffffffffff161415611f6b576040517f08c379a000000000000000000000000000000000000000000000000000000000815260040180806020018281038252601f8152602001807f45524332303a206d696e7420746f20746865207a65726f20616464726573730081525060200191505060405180910390fd5b611f776000838361241a565b611f8c81600354611d4d90919063ffffffff16565b600381905550611fe481600160008573ffffffffffffffffffffffffffffffffffffffff1673ffffffffffffffffffffffffffffffffffffffff16815260200190815260200160002054611d4d90919063ffffffff16565b600160008473ffffffffffffffffffffffffffffffffffffffff1673ffffffffffffffffffffffffffffffffffffffff168152602001908152602001600020819055508173ffffffffffffffffffffffffffffffffffffffff16600073ffffffffffffffffffffffffffffffffffffffff167fddf252ad1be2c89b69c2b068fc378daa952ba7f163c4a11628f55a4df523b3ef836040518082815260200191505060405180910390a35050565b600073ffffffffffffffffffffffffffffffffffffffff168273ffffffffffffffffffffffffffffffffffffffff161415612117576040517f08c379a00000000000000000000000000000000000000000000000000000000081526004018080602001828103825260218152602001806129406021913960400191505060405180910390fd5b6121238260008361241a565b61218f8160405180606001604052806022815260200161281160229139600160008673ffffffffffffffffffffffffffffffffffffffff1673ffffffffffffffffffffffffffffffffffffffff16815260200190815260200160002054611b679092919063ffffffff16565b600160008473ffffffffffffffffffffffffffffffffffffffff1673ffffffffffffffffffffffffffffffffffffffff168152602001908152602001600020819055506121e78160035461251990919063ffffffff16565b600381905550600073ffffffffffffffffffffffffffffffffffffffff168273ffffffffffffffffffffffffffffffffffffffff167fddf252ad1be2c89b69c2b068fc378daa952ba7f163c4a11628f55a4df523b3ef836040518082815260200191505060405180910390a35050565b600660019054906101000a900460ff16156122da576040517f08c379a00000000000000000000000000000000000000000000000000000000081526004018080602001828103825260108152602001807f5061757361626c653a207061757365640000000000000000000000000000000081525060200191505060405180910390fd5b6001600660016101000a81548160ff0219169083151502179055507f62e78cea01bee320cd4e420270b5ea74000d11b0c9f74754ebdbfc544b05a25861231e6116a3565b604051808273ffffffffffffffffffffffffffffffffffffffff16815260200191505060405180910390a1565b600061235a8360000183612563565b60001c905092915050565b600061238d836000018373ffffffffffffffffffffffffffffffffffffffff1660001b6125e6565b905092915050565b60006123a382600001612609565b9050919050565b60006123b683836125e6565b61240f578260000182908060018154018082558091505060019003906000526020600020016000909190919091505582600001805490508360010160008481526020019081526020016000208190555060019050612414565b600090505b92915050565b61242583838361261a565b600073ffffffffffffffffffffffffffffffffffffffff168273ffffffffffffffffffffffffffffffffffffffff1614156124e45761248e7f3c11d16cbaffd01df69ce1c404f6340ee057498f5f00246190ea54220576a84860001b6124896116a3565b611303565b6124e3576040517f08c379a000000000000000000000000000000000000000000000000000000000815260040180806020018281038252602481526020018061287b6024913960400191505060405180910390fd5b5b505050565b6000612511836000018373ffffffffffffffffffffffffffffffffffffffff1660001b612688565b905092915050565b600061255b83836040518060400160405280601e81526020017f536166654d6174683a207375627472616374696f6e206f766572666c6f770000815250611b67565b905092915050565b6000818360000180549050116125c4576040517f08c379a00000000000000000000000000000000000000000000000000000000081526004018080602001828103825260228152602001806127766022913960400191505060405180910390fd5b8260000182815481106125d357fe5b9060005260206000200154905092915050565b600080836001016000848152602001908152602001600020541415905092915050565b600081600001805490509050919050565b612625838383612770565b61262d61117d565b15612683576040517f08c379a000000000000000000000000000000000000000000000000000000000815260040180806020018281038252602a815260200180612a22602a913960400191505060405180910390fd5b505050565b6000808360010160008481526020019081526020016000205490506000811461276457600060018203905060006001866000018054905003905060008660000182815481106126d357fe5b90600052602060002001549050808760000184815481106126f057fe5b906000526020600020018190555060018301876001016000838152602001908152602001600020819055508660000180548061272857fe5b6001900381819060005260206000200160009055905586600101600087815260200190815260200160002060009055600194505050505061276a565b60009150505b92915050565b50505056fe456e756d657261626c655365743a20696e646578206f7574206f6620626f756e647345524332303a207472616e7366657220746f20746865207a65726f2061646472657373416363657373436f6e74726f6c3a2073656e646572206d75737420626520616e2061646d696e20746f206772616e74546f6b656e3a206d75737420686176652070617573657220726f6c6520746f20756e706175736545524332303a206275726e20616d6f756e7420657863656564732062616c616e636545524332303a20617070726f766520746f20746865207a65726f206164647265737345524332303a207472616e7366657220616d6f756e7420657863656564732062616c616e6365546f6b656e3a206d7573742068617665206275726e657220726f6c6520746f206275726e416363657373436f6e74726f6c3a2073656e646572206d75737420626520616e2061646d696e20746f207265766f6b65546f6b656e3a206d75737420686176652070617573657220726f6c6520746f20706175736545524332303a207472616e7366657220616d6f756e74206578636565647320616c6c6f77616e636545524332303a206275726e20616d6f756e74206578636565647320616c6c6f77616e636545524332303a206275726e2066726f6d20746865207a65726f206164647265737345524332303a207472616e736665722066726f6d20746865207a65726f206164647265737345524332303a20617070726f76652066726f6d20746865207a65726f2061646472657373546f6b656e3a206d7573742068617665206d696e74657220726f6c6520746f206d696e7445524332303a2064656372656173656420616c6c6f77616e63652062656c6f77207a65726f416363657373436f6e74726f6c3a2063616e206f6e6c792072656e6f756e636520726f6c657320666f722073656c6645524332305061757361626c653a20746f6b656e207472616e73666572207768696c6520706175736564a26469706673582212200c19e774b756a1b36fb4c03d9a449dc3e434d2ce557ed90448efe95594aabf5e64736f6c634300060c0033",
  "immutableReferences": {},
  "source": "// SPDX-License-Identifier: MIT\npragma solidity 0.6.12;\n\nimport \"../node_modules/@openzeppelin/contracts/access/AccessControl.sol\";\nimport \"../node_modules/@openzeppelin/contracts/GSN/Context.sol\";\nimport \"../node_modules/@openzeppelin/contracts/token/ERC20/ERC20.sol\";\nimport \"../node_modules/@openzeppelin/contracts/token/ERC20/ERC20Burnable.sol\";\nimport \"../node_modules/@openzeppelin/contracts/token/ERC20/ERC20Pausable.sol\";\n\ncontract Token is Context, AccessControl, ERC20Burnable, ERC20Pausable {\n    // keccak256(\"MINTER_ROLE\");\n    bytes32 public constant MINTER_ROLE = 0x9f2df0fed2c77648de5860a4cc508cd0818c85b8b8a1ab4ceeef8d981c8956a6;\n    // keccak256(\"PAUSER_ROLE\");\n    bytes32 public constant PAUSER_ROLE = 0x65d7a28e3265b37a6474929f336521b332c1681b933f6cb9f3376673440d862a;\n    // keccak256(\"BURNER_ROLE\");\n    bytes32 public constant BURNER_ROLE = 0x3c11d16cbaffd01df69ce1c404f6340ee057498f5f00246190ea54220576a848;\n    // keccak256(\"MINTER_ADMIN_ROLE\");\n    bytes32 public constant MINTER_ADMIN_ROLE = 0x70480ee89cb38eff00b7d23da25713d52ce19c6ed428691d22c58b2f615e3d67;\n    // keccak256(\"PAUSER_ADMIN_ROLE\");\n    bytes32 public constant PAUSER_ADMIN_ROLE = 0xe0e65c783ac33ff1c5ccf4399c9185066773921d6f8d050bf80781603021f097;\n    // keccak256(\"BURNER_ADMIN_ROLE\");\n    bytes32 public constant BURNER_ADMIN_ROLE = 0xc8d1ad9d415224b751d781cc8214ccfe7c47716e13229475443f04f1ebddadc6;\n\n    constructor() ERC20('Kirobo', 'KIRO') public {\n        _setupRole(DEFAULT_ADMIN_ROLE, _msgSender());\n\n        _setupRole(MINTER_ROLE, _msgSender());\n        _setupRole(PAUSER_ROLE, _msgSender());\n        _setupRole(BURNER_ROLE, _msgSender());\n\n        _setupRole(MINTER_ADMIN_ROLE, _msgSender());\n        _setupRole(PAUSER_ADMIN_ROLE, _msgSender());\n        _setupRole(BURNER_ADMIN_ROLE, _msgSender());\n\n        _setRoleAdmin(MINTER_ROLE, MINTER_ADMIN_ROLE);\n        _setRoleAdmin(PAUSER_ROLE, PAUSER_ADMIN_ROLE);\n        _setRoleAdmin(BURNER_ROLE, BURNER_ADMIN_ROLE);\n    }\n\n    receive() external payable {\n        require(false, \"Token: not aceepting ether\");\n    }\n\n    function mint(address to, uint256 amount) public virtual {\n        require(hasRole(MINTER_ROLE, _msgSender()), \"Token: must have minter role to mint\");\n        _mint(to, amount);\n    }\n\n    function pause() public virtual {\n        require(hasRole(PAUSER_ROLE, _msgSender()), \"Token: must have pauser role to pause\");\n        _pause();\n    }\n\n    function unpause() public virtual {\n        require(hasRole(PAUSER_ROLE, _msgSender()), \"Token: must have pauser role to unpause\");\n        _unpause();\n    }\n\n    function _beforeTokenTransfer(address from, address to, uint256 amount) \n        internal virtual override(ERC20, ERC20Pausable)\n    {\n        super._beforeTokenTransfer(from, to, amount);\n        if (to == address(0)) {\n            require(hasRole(BURNER_ROLE, _msgSender()), \"Token: must have burner role to burn\");\n        }\n    }\n}",
  "sourcePath": "/Users/orishalom/repositories/ki-safe-matic-truffle/contracts/Token.sol",
  "compiler": {
    "name": "solc",
    "version": "0.6.12+commit.27d51765.Emscripten.clang"
  },
  "schemaVersion": "3.4.2",
  "updatedAt": "2021-08-03T12:01:01.203Z",
  "networkType": "ethereum",
  "devdoc": {
    "kind": "dev",
    "methods": {
      "allowance(address,address)": {
        "details": "See {IERC20-allowance}."
      },
      "approve(address,uint256)": {
        "details": "See {IERC20-approve}. Requirements: - `spender` cannot be the zero address."
      },
      "balanceOf(address)": {
        "details": "See {IERC20-balanceOf}."
      },
      "burn(uint256)": {
        "details": "Destroys `amount` tokens from the caller. See {ERC20-_burn}."
      },
      "burnFrom(address,uint256)": {
        "details": "Destroys `amount` tokens from `account`, deducting from the caller's allowance. See {ERC20-_burn} and {ERC20-allowance}. Requirements: - the caller must have allowance for ``accounts``'s tokens of at least `amount`."
      },
      "decimals()": {
        "details": "Returns the number of decimals used to get its user representation. For example, if `decimals` equals `2`, a balance of `505` tokens should be displayed to a user as `5,05` (`505 / 10 ** 2`). Tokens usually opt for a value of 18, imitating the relationship between Ether and Wei. This is the value {ERC20} uses, unless {_setupDecimals} is called. NOTE: This information is only used for _display_ purposes: it in no way affects any of the arithmetic of the contract, including {IERC20-balanceOf} and {IERC20-transfer}."
      },
      "decreaseAllowance(address,uint256)": {
        "details": "Atomically decreases the allowance granted to `spender` by the caller. This is an alternative to {approve} that can be used as a mitigation for problems described in {IERC20-approve}. Emits an {Approval} event indicating the updated allowance. Requirements: - `spender` cannot be the zero address. - `spender` must have allowance for the caller of at least `subtractedValue`."
      },
      "getRoleAdmin(bytes32)": {
        "details": "Returns the admin role that controls `role`. See {grantRole} and {revokeRole}. To change a role's admin, use {_setRoleAdmin}."
      },
      "getRoleMember(bytes32,uint256)": {
        "details": "Returns one of the accounts that have `role`. `index` must be a value between 0 and {getRoleMemberCount}, non-inclusive. Role bearers are not sorted in any particular way, and their ordering may change at any point. WARNING: When using {getRoleMember} and {getRoleMemberCount}, make sure you perform all queries on the same block. See the following https://forum.openzeppelin.com/t/iterating-over-elements-on-enumerableset-in-openzeppelin-contracts/2296[forum post] for more information."
      },
      "getRoleMemberCount(bytes32)": {
        "details": "Returns the number of accounts that have `role`. Can be used together with {getRoleMember} to enumerate all bearers of a role."
      },
      "grantRole(bytes32,address)": {
        "details": "Grants `role` to `account`. If `account` had not been already granted `role`, emits a {RoleGranted} event. Requirements: - the caller must have ``role``'s admin role."
      },
      "hasRole(bytes32,address)": {
        "details": "Returns `true` if `account` has been granted `role`."
      },
      "increaseAllowance(address,uint256)": {
        "details": "Atomically increases the allowance granted to `spender` by the caller. This is an alternative to {approve} that can be used as a mitigation for problems described in {IERC20-approve}. Emits an {Approval} event indicating the updated allowance. Requirements: - `spender` cannot be the zero address."
      },
      "name()": {
        "details": "Returns the name of the token."
      },
      "paused()": {
        "details": "Returns true if the contract is paused, and false otherwise."
      },
      "renounceRole(bytes32,address)": {
        "details": "Revokes `role` from the calling account. Roles are often managed via {grantRole} and {revokeRole}: this function's purpose is to provide a mechanism for accounts to lose their privileges if they are compromised (such as when a trusted device is misplaced). If the calling account had been granted `role`, emits a {RoleRevoked} event. Requirements: - the caller must be `account`."
      },
      "revokeRole(bytes32,address)": {
        "details": "Revokes `role` from `account`. If `account` had been granted `role`, emits a {RoleRevoked} event. Requirements: - the caller must have ``role``'s admin role."
      },
      "symbol()": {
        "details": "Returns the symbol of the token, usually a shorter version of the name."
      },
      "totalSupply()": {
        "details": "See {IERC20-totalSupply}."
      },
      "transfer(address,uint256)": {
        "details": "See {IERC20-transfer}. Requirements: - `recipient` cannot be the zero address. - the caller must have a balance of at least `amount`."
      },
      "transferFrom(address,address,uint256)": {
        "details": "See {IERC20-transferFrom}. Emits an {Approval} event indicating the updated allowance. This is not required by the EIP. See the note at the beginning of {ERC20}; Requirements: - `sender` and `recipient` cannot be the zero address. - `sender` must have a balance of at least `amount`. - the caller must have allowance for ``sender``'s tokens of at least `amount`."
      }
    },
    "version": 1
  },
  "userdoc": {
    "kind": "user",
    "methods": {},
    "version": 1
  }
}